{
  "address": "0x6f115E579AEeb6409693FE25b8CcfeE2Ba3F02B2",
  "abi": [
    {
      "inputs": [],
      "name": "InitializationFailed",
      "type": "error"
    },
    {
      "anonymous": false,
      "inputs": [
        {
          "indexed": false,
          "internalType": "address",
          "name": "account",
          "type": "address"
        },
        {
          "indexed": false,
          "internalType": "address",
          "name": "implementation",
          "type": "address"
        },
        {
          "indexed": false,
          "internalType": "uint256",
          "name": "chainId",
          "type": "uint256"
        },
        {
          "indexed": false,
          "internalType": "address",
          "name": "tokenContract",
          "type": "address"
        },
        {
          "indexed": false,
          "internalType": "uint256",
          "name": "tokenId",
          "type": "uint256"
        },
        {
          "indexed": false,
          "internalType": "uint256",
          "name": "salt",
          "type": "uint256"
        }
      ],
      "name": "AccountCreated",
      "type": "event"
    },
    {
      "inputs": [
        {
          "internalType": "address",
          "name": "implementation",
          "type": "address"
        },
        {
          "internalType": "uint256",
          "name": "chainId",
          "type": "uint256"
        },
        {
          "internalType": "address",
          "name": "tokenContract",
          "type": "address"
        },
        {
          "internalType": "uint256",
          "name": "tokenId",
          "type": "uint256"
        },
        {
          "internalType": "uint256",
          "name": "salt",
          "type": "uint256"
        }
      ],
      "name": "account",
      "outputs": [
        {
          "internalType": "address",
          "name": "",
          "type": "address"
        }
      ],
      "stateMutability": "view",
      "type": "function"
    },
    {
      "inputs": [
        {
          "internalType": "address",
          "name": "implementation",
          "type": "address"
        },
        {
          "internalType": "uint256",
          "name": "chainId",
          "type": "uint256"
        },
        {
          "internalType": "address",
          "name": "tokenContract",
          "type": "address"
        },
        {
          "internalType": "uint256",
          "name": "tokenId",
          "type": "uint256"
        },
        {
          "internalType": "uint256",
          "name": "salt",
          "type": "uint256"
        },
        {
          "internalType": "bytes",
          "name": "initData",
          "type": "bytes"
        }
      ],
      "name": "createAccount",
      "outputs": [
        {
          "internalType": "address",
          "name": "",
          "type": "address"
        }
      ],
      "stateMutability": "nonpayable",
      "type": "function"
    }
  ],
  "transactionHash": "0xdc448d9412cbcc96ff8711c73b80d27f45a8636fccd2cb09f34cdb44e2c1667e",
  "args": [],
  "numDeployments": 1,
  "solcInputHash": "479b0b39f2518f02b690566429c1b498",
  "bytecode": "0x608060405234801561001057600080fd5b50610584806100206000396000f3fe608060405234801561001057600080fd5b50600436106100365760003560e01c80635e9bc5361461003b578063da7323b31461006a575b600080fd5b61004e6100493660046103be565b61007d565b6040516001600160a01b03909116815260200160405180910390f35b61004e61007836600461040c565b6100ac565b60008061008d87878787876101f2565b805160209091012090506100a1838261025b565b979650505050505050565b6000806100bc89898989896101f2565b905060006100d48660001b838051906020012061025b565b90506001600160a01b0381163b156100ef5791506100a19050565b6100fb6000878461026f565b90508315610185576000816001600160a01b0316868660405161011f9291906104bd565b6000604051808303816000865af19150503d806000811461015c576040519150601f19603f3d011682016040523d82523d6000602084013e610161565b606091505b505090508061018357604051630337323560e31b815260040160405180910390fd5b505b604080516001600160a01b0383811682528c811660208301528183018c90528a1660608201526080810189905260a0810188905290517f07fba7bba1191da7ee1155dcfa0030701c9c9a9cc34a93b991fc6fd0c9268d8f9181900360c00190a19998505050505050505050565b60408051602081018390529081018590526001600160a01b0384166060828101919091526080820184905290869060a00160408051601f198184030181529082905261024192916020016104cd565b604051602081830303815290604052905095945050505050565b6000610268838330610378565b9392505050565b6000834710156102c65760405162461bcd60e51b815260206004820152601d60248201527f437265617465323a20696e73756666696369656e742062616c616e636500000060448201526064015b60405180910390fd5b81516000036103175760405162461bcd60e51b815260206004820181905260248201527f437265617465323a2062797465636f6465206c656e677468206973207a65726f60448201526064016102bd565b8282516020840186f590506001600160a01b0381166102685760405162461bcd60e51b815260206004820152601960248201527f437265617465323a204661696c6564206f6e206465706c6f790000000000000060448201526064016102bd565b6000604051836040820152846020820152828152600b8101905060ff815360559020949350505050565b80356001600160a01b03811681146103b957600080fd5b919050565b600080600080600060a086880312156103d657600080fd5b6103df866103a2565b9450602086013593506103f4604087016103a2565b94979396509394606081013594506080013592915050565b600080600080600080600060c0888a03121561042757600080fd5b610430886103a2565b965060208801359550610445604089016103a2565b9450606088013593506080880135925060a088013567ffffffffffffffff8082111561047057600080fd5b818a0191508a601f83011261048457600080fd5b81358181111561049357600080fd5b8b60208285010111156104a557600080fd5b60208301945080935050505092959891949750929550565b8183823760009101908152919050565b733d60ad80600a3d3981f3363d3d373d3d3d363d7360601b8152606083901b6bffffffffffffffffffffffff191660148201526e5af43d82803e903d91602b57fd5bf360881b60288201528151600090815b8181101561053c576020818601810151603786840101520161051f565b5060009201603701918252509291505056fea264697066735822122048697def4d42f2f3f0ae77fb35ad1333d1f20e26b7948502d074709190b66eaf64736f6c63430008130033",
  "devdoc": {
    "events": {
      "AccountCreated(address,address,uint256,address,uint256,uint256)": {
        "details": "The registry SHALL emit the AccountCreated event upon successful account creation"
      }
    },
    "kind": "dev",
    "methods": {
      "account(address,uint256,address,uint256,uint256)": {
        "details": "Returns the computed address of a token bound account",
        "returns": {
          "_0": "The computed address of the account"
        }
      },
      "createAccount(address,uint256,address,uint256,uint256,bytes)": {
        "details": "Creates a token bound account for an ERC-721 token.If account has already been created, returns the account address without calling create2.If initData is not empty and account has not yet been created, calls account with provided initData after creation. Emits AccountCreated event.",
        "returns": {
          "_0": "the address of the account"
        }
      }
    },
    "version": 1
  },
  "userdoc": {
    "kind": "user",
    "methods": {},
    "version": 1
  },
  "storageLayout": {
    "storage": [],
    "types": null
  }
}